:020000040800F2
:10000000D80E0020D19F0008299A00082B9A0008DA
:100010002F9A0008339A0008379A00080000000061
:100020000000000000000000000000003B9A0008F3
:100030003D9A0008000000003F9A00083B9F00081E
:10004000EB9F0008EB9F0008EB9F0008EB9F000868
:10005000EB9F0008EB9F0008EB9F0008EB9F000858
:10006000EB9F0008EB9F0008EB9F0008EB9F000848
:10007000EB9F0008EB9F0008EB9F0008EB9F000838
:10008000EB9F0008EB9F0008EB9F0008EB9F000828
:10009000EB9F0008EB9F0008EB9F0008EB9F000818
:1000A000EB9F0008EB9F0008EB9F0008EB9F000808
:1000B000EB9F0008419A0008EB9F0008EB9F0008A7
:1000C000EB9F0008EB9F0008EB9F0008EB9F0008E8
:1000D000EB9F0008B59C0008EB9F0008EB9F000811
:1000E000EB9F0008EB9F0008EB9F000800F002F870
:1000F00000F06DF80AA090E8000C82448344AAF155
:100100000107DA4501D100F062F8AFF2090EBAE852
:100110000F0013F0010F18BFFB1A43F0010318473B
:1001200004CE000024CE00000A444FF0000C10F86A
:10013000013B13F0070408BF10F8014B1D1108BF65
:1001400010F8015B641E05D010F8016B641E01F805
:10015000016BF9D113F0080F1EBF10F8014BAD1C55
:100160000C1B09D16D1E58BF01F801CBFAD505E073
:1001700014F8016B01F8016B6D1EF9D59142D6D3CD
:10018000704700000023002400250026103A28BFF5
:1001900078C1FBD8520728BF30C148BF0B607047F9
:1001A00066290CF0208664290BF0A68178290BF0D3
:1001B000DD81002070471FB50BF0E4FD0400002036
:1001C00000210CF023FBE0601FBD10B510BD0BF04B
:1001D000D3FE1146FFF7EFFF0AF078FD0BF0F1FEBA
:1001E00003B4FFF7F2FF03BC0BF032FF704770B5AA
:1001F000044603F042FB4FF47A71B0FBF1F5284658
:1002000001F044FD00222146501E01F0C9FC0020EF
:1002100070BD10B54048006840F010003E490860CD
:10022000032001F0ABFC0020FFF7E1FF09F05CFACE
:10023000002010BD704710B54FF0FF303749C8603F
:1002400000200861401EC8600020C860FFF7F2FF70
:10025000002010BD32480068401C314908607047DA
:100260002F480068704731B50024FFF7F9FF0446B6
:1002700000BFFFF7F5FF001B00998842F9D338BD96
:100280004FF0E020006920F002004FF0E02108610B
:1002900070474FF0E020006940F002004FF0E0218D
:1002A000086170471F4870471F4800681F4991FA4E
:1002B000A1F1B1FA81F1C84070471B480068C0F352
:1002C0000B0070471848406840F00100164948602C
:1002D00070471548406820F0010013494860704796
:1002E0001148406840F002000F49486070470E48CE
:1002F000406820F002000C49486070470A48406896
:1003000040F004000849486070470748406820F002
:100310000400054948607047002002400010024078
:100320000000002000040001002004E00000FFFFA6
:1003300070B5044600252068806800F00100F0B127
:100340002068806820F0010021688860FFF788FF3E
:1003500005460EE0FFF784FF401B022809D9A06A7A
:1003600040F01000A062E06A40F00100E06201206D
:1003700070BD2068806800F001000028EAD10020EC
:10038000F6E770472DE9F0410446002700250026D6
:10039000A84614B90120BDE8F081A06810B16069D9
:1003A00000B100BFA06A30B90020E06284F82400E8
:1003B000204609F0DAF92046FFF7BAFF0746A06A9F
:1003C00000F01000002876D1002FFCD1A06A20F4A4
:1003D000885040F00200A062E16960680843022290
:1003E00092FAA2F2B2FA82F2E1689140084306431F
:1003F000A068B0F5807F02D0A068012802D14FF438
:10040000807000E0002005436069012816D1E06893
:1004100060B9A069401E4FF4604191FAA1F1B1FAB0
:1004200081F1884040F40060054307E0A06A40F095
:100430002000A062E06A40F00100E06220684068AD
:1004400020F4694028432168486020688068F949A1
:100450000840304321688860A068B0F5807F02D0F2
:10046000A068012802D14FF4807000E00020B0F5B0
:10047000807F09D12069401E4FF4700191FAA1F1EB
:10048000B1FA81F100FA01F82068C06A20F4700026
:1004900040EA08002168C86220688068E649084090
:1004A000B04209D10020E062A06A20F0020040F0D2
:1004B0000100A06211E00BE0A06A20F0020040F011
:1004C0001000A062E06A40F00100E062012704E051
:1004D000A06A40F01000A062012738465BE7704731
:1004E00070B5044600250CB9012070BDA06A40F02B
:1004F0000200A0622046FFF71BFF0546002D69D1D0
:100500006FF01F002168086020684068CB490840F0
:100510002168486020688068C9490840216888606F
:100520002068C06800F07F402168C86020680069CA
:1005300000F0404021680861206840696FF30B00BB
:1005400021684861206880696FF30B002168886129
:100550002068C0696FF30B002168C8612068006AD9
:100560006FF30B00216808622068406A6FF30B008C
:10057000216848622068806A6FF30B0021688862F6
:100580002068C06A00F07F402168C8622068C06AA5
:1005900000F07F402168C8622068006B00F0404096
:1005A000216808632068406B00F040402168486380
:1005B0002068806B6FF31500216888632068806B6A
:1005C0006FF3150021688863204609F008F90020C0
:1005D000E062A06200BF002084F8240000BF28462B
:1005E00083E738B504460025002000902068806825
:1005F00000F0010080BB2068806840F001002168A5
:100600008860904800689049B0FBF1F0009002E0EB
:100610000098401E009000980028F9D1FFF720FEB6
:10062000054613E0FFF71CFE401B02280ED9A06A06
:1006300040F01000A062E06A40F00100E06200BFFC
:10064000002084F8240000BF012038BD20688068A5
:1006500000F001000028E5D00020F6E770B5044660
:10066000002500BF94F82400012801D1022070BDAC
:10067000012084F8240000BF2046FFF7B2FF0546A2
:10068000002D77D1A06A40F20121884340F48070A8
:10069000A0626E492068884208D16D48006800F465
:1006A000702008B9012002E0002000E0012078B1AC
:1006B000A06A20F48010A0622068406800F4806086
:1006C00000B3A06A20F4005040F48050A06219E00A
:1006D000A06A40F48010A0625D49091F206888422A
:1006E00003D05A492068884204D15948006800F470
:1006F000806000E0002028B1A06A20F4005040F49F
:100700008050A062A06A00F4805020B1E06A20F01E
:100710000600E06201E00020E06200BF002084F8F3
:10072000240000BFC01E216808602068806800F4B3
:100730006020B0F5602F16D144492068884208D166
:100740004348006800F4702008B9012002E000204E
:1007500000E0012038B12068806840F4A0002168E2
:1007600088600CE006E02068806840F48010216812
:10077000886004E000BF002084F8240000BF284601
:1007800075E770B50446002500BF94F824000128E1
:1007900001D1022070BD012084F8240000BF204652
:1007A000FFF7C6FD05462DB9A06A20F4885040F039
:1007B0000100A06200BF002084F8240000BF28468A
:1007C000E8E7F8B504460D46002600200090002713
:1007D000FFF746FD06462068806800F4807050B13F
:1007E000A06A40F02000A06200BF002084F824002E
:1007F00000BF0120F8BD2068406800F48070C0B9D7
:100800002068C06A00F4700098B923E0681C08B33F
:1008100025B1FFF725FD801BA8421BD9A06A40F037
:100820000400A06200BF002084F8240000BF032061
:10083000E0E716E0FDF7E1FFFE0E1FFF00003FFFBF
:10084000F00601FF0800002040420F000028014090
:10085000042401402068006800F002000028D5D080
:1008600050E0022003F0A2F9F7490968B1FBF0F06B
:1008700021680969F54A114091B92168C968921146
:10088000114069B921680969F14A114031B92168FB
:10089000C9689211114009B9142117E0292115E006
:1008A00021680969EA4A114021B92168C968921191
:1008B000114041B121680969E64A114029B921680E
:1008C000C968114009B9542100E0FC2100FB01F77F
:1008D00015E0681C80B125B1FFF7C2FC801BA8425F
:1008E0000AD9A06A40F00400A06200BF002084F88A
:1008F000240000BF03207DE70098401C0090009872
:10090000B842E6D36FF0120021680860A06A40F494
:100910000070A0622068806800F46020B0F5602F4D
:100920000DD1E06858B9A06A20F48070A062A06A76
:1009300000F4805018B9A06A40F00100A0620020C5
:1009400058E72DE9F04104460E4615460027FFF70B
:1009500087FC074613E0681C88B125B1FFF780FCCF
:10096000C01BA8420BD9A06A40F00400A06200BFDF
:10097000002084F8240000BF0320BDE8F081206837
:1009800000683040B04201D1012000E00020002882
:10099000E1D0A06A40F48030A0626FF001002168CD
:1009A00008600020E9E770B50446002500BF94F810
:1009B0002400012801D1022070BD012084F8240008
:1009C00000BF2046FFF70DFE0546002D7DD1A06A31
:1009D00040F60161884340F48070A0629E4920681F
:1009E000884208D19D48006800F4702008B90120B1
:1009F00002E0002000E0012078B1A06A20F480101D
:100A0000A0622068406800F4806000B3A06A20F40F
:100A1000005040F48050A06219E0A06A40F48010B9
:100A2000A0628E49091F2068884203D08A49206845
:100A3000884204D18948006800F4806000E000200A
:100A400028B1A06A20F4005040F48050A062A06A4F
:100A500000F4805020B1E06A20F00600E06201E07E
:100A60000020E06200BF002084F8240000BFC01E08
:100A7000216808602068406840F0200021684860D4
:100A80002068806800F46020B0F5602F16D17249AC
:100A90002068884208D17148006800F4702008B9C5
:100AA000012002E0002000E0012038B120688068C9
:100AB00040F4A000216888600CE006E020688068AF
:100AC00040F480102168886004E000BF002084F8B2
:100AD000240000BF28466FE770B50446002500BF1C
:100AE00094F82400012801D1022070BD012084F86F
:100AF000240000BF2046FFF71BFC05465DB92068B7
:100B0000406820F0200021684860A06A20F48850E6
:100B100040F00100A06200BF002084F8240000BF64
:100B20002846E2E7704770B505466C6AA06A40F057
:100B30004000A062E06A40F00400E0622046FFF757
:100B4000F1FF70BD704770B50446656A2846FFF72F
:100B5000F9FF70BD704770B505466C6AA06A00F079
:100B60005000E0B9A06A40F40070A062206880687C
:100B700000F46020B0F5602F0DD1E06858B9A06A8C
:100B800020F48070A062A06A00F4805018B9A06AB6
:100B900040F00100A0622046FFF7DCFF03E0206A7E
:100BA000016B2846884770BD2DE9F04104460D468B
:100BB000164600272949091F2068884203D0264984
:100BC0002068884204D12548006800F4702000E0C5
:100BD000002000287ED100BF94F82400012802D113
:100BE0000220BDE8F081012084F8240000BF2046E7
:100BF000FFF7F7FC0746002F6DD1A06A40F60161B0
:100C0000884340F48070A06213492068884208D16C
:100C10001248006800F4702008B9012002E00020AA
:100C200000E00120E0B1A06A20F48010A0622068FA
:100C3000406800F4806068B3A06A20F4005040F47B
:100C40008050A06226E00000080000202449922481
:100C500092244912499224000028014004240140B2
:100C6000A06A40F48010A062F8492068884203D04E
:100C7000F7492068884205D1F448001D006800F457
:100C8000806000E0002028B1A06A20F4005040F409
:100C90008050A062A06A00F4805020B1E06A20F089
:100CA0000600E06201E00020E06200BF002084F85E
:100CB000240000BFAFF26110216A8862AFF27910A0
:100CC000216AC862AFF2A110216A08636FF00200C6
:100CD000216801E029E023E008602068806840F492
:100CE000807021688860226802F14C0133462A46F0
:100CF000206A01F0AEF92068806800F46020B0F549
:100D0000602F06D12068806840F4A00021688860C8
:100D10000CE02068806840F480102168886005E05D
:100D200000BF002084F8240000E00127384658E77F
:100D300070B50446002500BF94F82400012801D1B5
:100D4000022070BD012084F8240000BF2046FFF778
:100D5000EFFA0546ADB92068806820F480702168FC
:100D60008860206A01F0B0F9054635B9A06A20F420
:100D7000885040F00100A06203E0A06A40F040000B
:100D8000A06200BF002084F8240000BF2846D8E7F6
:100D900001460868C06C7047704710B5044620686B
:100DA000406800F0200020282FD12068006800F063
:100DB0000200022829D1A06A00F0100018B9A06A28
:100DC00040F40070A0622068806800F46020B0F5F4
:100DD000602F13D1E06888B92068406820F02000B7
:100DE00021684860A06A20F48070A062A06A00F4C4
:100DF000805018B9A06A40F00100A0622046FFF7B9
:100E0000A9FE6FF01200216808602068406800F0B9
:100E1000800080283BD12068006800F0040004288E
:100E200035D1A06A00F0100018B9A06A40F4005053
:100E3000A0622068806800F4E040B0F5E04F0DD07B
:100E40002068406800F48060D0B92068806800F4B1
:100E50006020B0F5602F13D1E06888B92068406841
:100E600020F0800021684860A06A20F48050A062D1
:100E7000A06A00F4807018B9A06A40F00100A06276
:100E8000204600F0CDFC6FF00C002168086020685F
:100E9000406800F0400040280FD12068006800F052
:100EA000010050B1A06A40F48030A0622046FFF7F4
:100EB00073FF6FF001002168086010BD78B502462D
:100EC00000230020009000BF92F82400012801D1E7
:100ED000022078BD012082F8240000BF486807285E
:100EE0001DD21068446B0879401E4FF4787595FA4E
:100EF000A5F5B5FA85F568431F25854024EA050068
:100F00000C79641E4FF4787696FAA6F6B6FA86F651
:100F100074430D68A5402843146860633DE0486849
:100F20000D281DD21068046B0879C01F4FF4787526
:100F300095FAA5F5B5FA85F568431F25854024EA9D
:100F400005000C79E41F4FF4787696FAA6F6B6FA07
:100F500086F674430D68A5402843146820631CE09E
:100F60001068C46A08790D384FF4787595FAA5F5BC
:100F7000B5FA85F568431F25854024EA05000C79FC
:100F80000D3C4FF4787696FAA6F6B6FA86F67443D8
:100F90000D68A54028431468E06208680A281BD33E
:100FA0001068C46808780A38382595FAA5F5B5FAA6
:100FB00085F568430725854024EA05000C780A3C3E
:100FC000382696FAA6F6B6FA86F674438D68A540DA
:100FD00028431468E06017E0106800690C78382531
:100FE00095FAA5F5B5FA85F56C430725A540A84304
:100FF0000D78382696FAA6F6B6FA86F675438C680A
:10100000AC402043146820610868102802D00868AA
:1010100011282FD10D4C1068A04226D1106880688D
:1010200000F4000000BB1068806840F40000146801
:10103000A060086810281DD106480068064CB0FB67
:10104000F4F000EB8000400000900AE00024014032
:10105000002801400800002040420F000098401E78
:10106000009000980028F9D104E0906A40F0200038
:101070009062012300BF002082F8240000BF1846C0
:1010800027E710B50246224B0868984207D0214B4B
:101090000868984203D0204B0868984200D100BFEE
:1010A00000BF92F82400012801D1022010BD0120C8
:1010B00082F8240000BF8868012806D110684068C3
:1010C00040F040001368586005E01068406820F068
:1010D000400013685860D1E90003184313685B6847
:1010E0000E4C2340184313685860C8681368586250
:1010F00008691368986200BF002082F8240000BFCE
:1011000000BFD3E70146886A70470146C86A704746
:1011100000028000000240000002C000E0FD3FFF2E
:10112000F8B5044600260020009000BF94F8240083
:10113000012801D10220F8BD012084F8240000BF5D
:101140002046FFF7F5F80646002E62D1A06A20F48B
:10115000885040F00200A062022002F027FDFE4904
:101160000968B1FBF0F04000009002E00098401EDA
:10117000009000980028F9D12046FFF732FA206845
:10118000806840F0080021688860FFF769F805462C
:1011900011E0FFF765F8401B0A280CD9A06A20F07F
:1011A000020040F01000A06200BF002084F824007C
:1011B00000BF0120BFE72068806800F00800002819
:1011C000E7D12068806840F0040021688860FFF75C
:1011D00047F8054611E0FFF743F8401B0A280CD9F1
:1011E000A06A20F0020040F01000A06200BF0020C2
:1011F00084F8240000BF01209DE72068806800F08B
:1012000004000028E7D1A06A20F0020040F00100AD
:10121000A06200BF002084F8240000BF30468AE7A7
:1012200070B50446002500BF94F82400012801D1C0
:10123000022070BD012084F8240000BF2046FFF783
:10124000D0F90546002D55D1A06A42F2010188432C
:1012500040F48050A062C1492068884208D1C0484B
:10126000006800F4702008B9012002E0002000E0CE
:10127000012020B1A06A20F48010A06203E0A06ADF
:1012800040F48010A062A06A00F4807008B90020C9
:10129000E06200BF002084F8240000BF401F2168E6
:1012A00008602068406800F4806010BB2068806897
:1012B00000F4E040B0F5E04F15D1A849206888421D
:1012C00008D1A748006800F4702008B9012002E0A6
:1012D000002000E0012030B12068806840F4021056
:1012E000216888600BE02068806840F40040216835
:1012F000886004E000BF002084F8240000BF284676
:1013000097E770B50446002500BF94F82400012833
:1013100001D1022070BD012084F8240000BFA06A22
:1013200000F4807080B92068406800F4806058B98B
:101330002046FEF7FDFF05465DB9A06A20F48850FF
:1013400040F00100A06204E0A06A40F02000A0622A
:10135000012500BF002084F8240000BF2846D9E7FB
:10136000F8B504460D46002000900027FEF778FFF0
:1013700006462068806B00F44010D0B912E0681C6B
:1013800080B125B1FEF76CFF801BA8420AD9A06A84
:1013900040F00400A06200BF002084F8240000BFD9
:1013A0000320F8BD2068006800F004000028E6D0A3
:1013B00050E0022002F0FAFB67490968B1FBF0F047
:1013C00021680969674A114091B92168C968921179
:1013D000114069B921680969634A114031B921682E
:1013E000C9689211114009B9142117E0292115E0AB
:1013F000216809695C4A114021B92168C9689211C4
:10140000114041B121680969584A114029B9216840
:10141000C968114009B9542100E0FC2100FB01F723
:1014200015E0681C80B125B1FEF71AFF801BA842A9
:101430000AD9A06A40F00400A06200BF002084F82E
:10144000240000BF0320ACE70098401C00900098E7
:10145000B842E6D36FF00E0021680860A06A40F43D
:101460000050A0622068806800F4E040B0F5E04FD2
:101470000DD02068406800F48060A0B920688068C2
:1014800000F46020B0F5602F0DD1E06858B9A06A73
:1014900020F48050A062A06A00F4807018B9A06A9D
:1014A00040F00100A06200207BE770B504460025F3
:1014B00000BF94F82400012801D1022070BD012052
:1014C00084F8240000BF2046FFF78BF80546002D66
:1014D00068D1A06A42F20101884340F48050A062C2
:1014E0001E492068884208D11D48006800F4702019
:1014F00008B9012002E0002000E0012020B1A06A2C
:1015000020F48010A06203E0A06A40F48010A06282
:10151000A06A00F4807008B90020E06200BF0020DB
:1015200084F8240000BF401F2168086020684068DC
:1015300040F08000216848602068406800F48060C6
:1015400040BB2068806800F4E040B0F5E04F22D155
:101550000249206888420BE0080000200028014072
:1015600004240140244992249224491249922400DF
:1015700008D1FE48006800F4702008B9012002E09C
:10158000002000E0012030B12068806840F40210A3
:10159000216888600BE02068806840F40040216882
:1015A000886004E000BF002084F8240000BF2846C3
:1015B00084E770B50446002500BF94F82400012894
:1015C00001D1022070BD012084F8240000BFA06A70
:1015D00000F48070B0B92068406800F4806088B979
:1015E0002046FEF7A5FE05468DB92068406820F02C
:1015F000800021684860A06A20F4885040F0010013
:10160000A06204E0A06A40F02000A062012500BFB3
:10161000002084F8240000BF2846D3E7F0B58DB041
:1016200004460E461746002500BF94F82400012802
:1016300002D102200DB0F0BD012084F8240000BFCB
:10164000CB480190019830B10198806800F4602087
:10165000B0F5602F0AD0A06A40F02000A06200BF61
:10166000002084F8240000BF0120E3E72046FEF7B5
:10167000B8FF05461DB901A8FEF7B3FF0546002DCA
:1016800046D1A06ABB49084040F48070A06220683F
:10169000406800F4806028B1A06A20F4005040F453
:1016A0008050A06200BF002084F8240000BFE062E8
:1016B000B148216A8862B148216AC862B048216A8B
:1016C00008636FF00200216808602068806840F4B9
:1016D000807021688860226802F14C013B463246E6
:1016E000206A00F0B6FC2068806800F46020B0F545
:1016F000602F06D12068806840F4A00021688860CF
:101700000BE02068806840F480102168886004E065
:1017100000BF002084F8240000BF28468AE730B5C7
:101720008DB00446002500BF94F82400012802D1A2
:1017300002200DB030BD012084F8240000BF2046F7
:10174000FEF7F6FD0546002D3AD189480190019833
:1017500050B9A06A40F04000A06200BF002084F8A9
:10176000240000BF0120E4E701A8FEF7E1FD0546E3
:1017700055B1A06A40F01000A06200BF002084F8BC
:10178000240000BF0120D4E72068806820F4807026
:10179000216888602068406820F4702021684860D3
:1017A000206A00F091FC054635B9A06A20F4885003
:1017B00040F00100A06203E0A06A40F04000A06297
:1017C00000BF002084F8240000BF2846B1E702468D
:1017D000002001290FD0022909D0032904D00429AF
:1017E00008D11368986C09E01368586C06E0136818
:1017F000186C03E000BF1368D86B00BF00BF7047D0
:10180000014600200A68D06C584A121D126802F482
:10181000807222B9564A4C32126840EA0240704740
:10182000704778B50246002300200090906800B110
:1018300000BF00BF92F82400012801D1022078BD2A
:10184000012082F8240000BF9068D0B948680128C0
:1018500011D14FF4787494FAA4F4B4FA84F404EB3C
:1018600044040868A0401468A46B6FF31504204377
:101870001468A0634EE0906A40F02000906201235B
:1018800048E00C694868A0422FD84C680869001BE2
:10189000C0F103004FF4787494FAA4F4B4FA84F419
:1018A00060431F24844044F440141068806BA043BC
:1018B0004D680C69641BC4F103044FF4787595FA04
:1018C000A5F5B5FA85F56C430D6805FA04F40D69C4
:1018D0006D1E4FF4401696FAA6F6B6FA86F6B54097
:1018E0002C4320431468A06314E04C680869001B73
:1018F000C0F103004FF4787494FAA4F4B4FA84F4B9
:1019000060431F24844044F440141068806BA0435B
:101910001468A0631068806800F0010040B9106886
:10192000806847F20104A043CC6920431468A0609A
:10193000886901280FD1C869B0F5E04F06D1106859
:10194000406840F480601468606004E0906A40F091
:10195000200090620123486901281AD1886998B94A
:101960001068406840F4805014680BE00424014083
:1019700000280140FEFDEFFF570B0008470B000851
:10198000270B0008606004E0906A40F0200090623D
:10199000012308680A281BD31068C46808780A382D
:1019A000382595FAA5F5B5FA85F5684307258540EC
:1019B00024EA05000C780A3C382696FAA6F6B6FA10
:1019C00086F674438D68A54028431468E06017E0EC
:1019D000106800690C78382595FAA5F5B5FA85F5F3
:1019E0006C430725A540A8430D78382696FAA6F63D
:1019F000B6FA86F675438C68AC40204314682061C3
:101A00000868102802D00868112805D1106880687D
:101A100040F400001468A0604868012806D002283D
:101A20000DD0032814D004281BD11BE01068406996
:101A30006FF30B00CC682043146860611BE01068F2
:101A400080696FF30B00CC6820431468A06112E03A
:101A50001068C0696FF30B00CC6820431468E06124
:101A600009E000BF1068006A6FF30B00CC682043E8
:101A70001468206200BF00BF0868102802D0086800
:101A8000112827D1314C1068A0421ED110688068FF
:101A900000F40000F0B91068806840F40000146899
:101AA000A0600868102815D129480068294CB0FBAF
:101AB000F4F000EB80004000009002E00098401E2F
:101AC000009000980028F9D104E0906A40F02000CE
:101AD0009062012300BF002082F8240000BF184656
:101AE000ADE610B58CB00246002300BF92F824008A
:101AF000012802D102200CB010BD012082F8240080
:101B000000BF154800901068806800F0010088B997
:101B10000098806800F0010060B90C4C1068A04289
:101B200008D11068406820F470200C6820431468C5
:101B3000606004E0906A40F020009062012300BFE2
:101B4000002082F8240000BF1846D4E7002401409A
:101B50000800002040420F000028014010B5002876
:101B600007DA0A07140EA94A00F00F031B1FD4540A
:101B700003E00A07130EA64A135410BD00BF00F07D
:101B80000702A24B0C3B19684FF6FF031940A14B0B
:101B90000B4343EA02219D4B0C3B196000BF704789
:101BA0002DE9F05F80460D461646002700F027F924
:101BB000074639462A46334601F00700C0F1070AB6
:101BC000BAF1040F02D94FF0040A01E0C0F1070A8C
:101BD000D14600F1040ABAF1070F02D24FF0000A11
:101BE00001E0A0F1030AD4464FF0010A0AFA09FA0B
:101BF000AAF1010A0AEA020A0AFA0CFA4FF0010BEA
:101C00000BFA0CFBABF1010B0BEA030B4AEA0B04DA
:101C100021464046FFF7A2FFBDE8F09F00BF00F05D
:101C20001F02012191404209920002F1E022C2F814
:101C3000001100BF704700BF00F01F02012191405A
:101C4000754A430942F8231000BF704700BF00BF28
:101C500000BF00BF00BFBFF34F8F00BF00BF00BF7A
:101C60006A480C38006800F4E0606A490843001DC7
:101C700066490C39086000BF00BF00BFBFF34F8F3B
:101C800000BF00BF00BF00BF00BFFDE770B5044646
:101C90002546681EB0F1807F01D301200FE0681E49
:101CA0004FF0E02148610F214FF0FF30FFF756FF62
:101CB00000204FF0E021886107200861002070BDFE
:101CC00010B500F09CF810BD2DE9F0430446204605
:101CD000002808DA4D4F00F00F0CACF1040C17F897
:101CE0000C703F0902E04A4F3F5C3F093D460E46FB
:101CF00006F00700C0F10708B8F1040F02D94FF051
:101D0000040801E0C0F10708C44600F10408B8F176
:101D1000070F02D24FF0000801E0A0F10308474688
:101D200025FA07F84FF0010909FA0CF9A9F10109A0
:101D300008EA0908C2F800804FF0010808FA07F81D
:101D4000A8F1010808EA0508C3F8008000BFBDE853
:101D5000F08300BF00F01F02012191402E4A803223
:101D6000430942F8231000BF704710B501460846EA
:101D7000294A8032430952F8232000F01F0401232E
:101D8000A3401A400AB1012200E00022104610BD13
:101D900000BF00F01F0201219140204A430942F890
:101DA000231000BF704710B5014608461B4A803219
:101DB000430952F8232000F01F040123A3401A40D6
:101DC0000AB1012200E00022104610BD042808D10B
:101DD0004FF0E021096941F004014FF0E022116168
:101DE00007E04FF0E021096921F004014FF0E02203
:101DF00011617047704710B5FFF7FCFF10BD034835
:101E00000C380068C0F302207047000018ED00E0B5
:101E100000E400E00000FA0580E100E080E200E07C
:101E20000146002209B90120704791F8210010B93C
:101E3000002081F82000022081F821000868026853
:101E400043F6F0708243D1E901031843CB6818438D
:101E50000B6918434B6918438B691843CB691843C6
:101E600002430868026000204863012081F82100D5
:101E70000020D9E7014609B90120704791F82100F7
:101E8000022801D10120F8E70868006820F001006D
:101E90000A68106000200A6810600A6850600A68CA
:101EA00090600A68D060F74A0868904201D1022029
:101EB00027E0F44A14320868904201D1202020E043
:101EC000F04A28320868904201D1401519E0ED4AE5
:101ED0003C320868904202D14FF4005011E0E94AC8
:101EE00050320868904202D14FF4003009E0E54AD0
:101EF00064320868904202D14FF4001001E04FF0C4
:101F00000070E04A083A5060DE4A0868904201D109
:101F1000082027E0DB4A14320868904201D1802073
:101F200020E0D84A28320868904201D1C01419E054
:101F3000D44A3C320868904202D14FF4004011E08C
:101F4000D04A50320868904202D14FF4002009E094
:101F5000CC4A64320868904202D14FF4000001E09C
:101F60004FF00060C74A083A5060C64A086890427D
:101F700001D1042027E0C34A14320868904201D1FD
:101F8000402020E0BF4A28320868904201D1001565
:101F900019E0BC4A3C320868904202D14FF48040BC
:101FA00011E0B84A50320868904202D14FF48020C4
:101FB00009E0B44A64320868904202D14FF48000CC
:101FC00001E04FF08060AF4A083A5060002048635B
:101FD00081F8210000BF81F8200000BF00BF4CE75E
:101FE00010B5046863604468102C04D10468A260D2
:101FF0000468E16003E00468A1600468E26010BD69
:102000002DE9F04104460D4616461F4600BF94F8E0
:102010002000012802D10220BDE8F081012084F8CF
:10202000200000BF022084F821002068006820F012
:102030000100216808603B46324629462046FFF7EA
:10204000CFFF2068006840F0010021680860002090
:10205000E2E72DE9F04104460D4616461F4600BF53
:1020600094F82000012802D10220BDE8F08101206F
:1020700084F8200000BF022084F821002068006856
:1020800020F00100216808603B4632462946204680
:10209000FFF7A6FF2068006840F002002168086092
:1020A0002068006840F0040021680860206800682B
:1020B00040F00800216808602068006840F00100D6
:1020C000216808600020D0E770B50446002520682C
:1020D000006820F0010021680860FEF7C1F805469D
:1020E00013E0FEF7BDF8401BB0F57A7F0DD9606BA9
:1020F00040F020006063032084F8210000BF00202E
:1021000084F8200000BF032070BD2068006800F044
:1021100001000028E5D1012084F8210000BF002043
:1021200084F8200000BF00BFEEE72DE9F04104462F
:102130000E4615464FF000087EBB52492068884283
:1021400001D1022027E04F4914312068884201D193
:10215000202020E04B4928312068884201D14015D9
:1021600019E048493C312068884202D14FF40050C0
:1021700011E0444950312068884202D14FF40030C8
:1021800009E0404964312068884202D14FF40010D0
:1021900001E04FF0007007462FE0FFE73949206863
:1021A000884201D1042027E0364914312068884252
:1021B00001D1402020E0334928312068884201D1F4
:1021C000001519E02F493C312068884202D14FF4B4
:1021D000804011E02B4950312068884202D14FF4F1
:1021E000802009E0274964312068884202D14FF4F9
:1021F000800001E04FF080600746FEF731F880462E
:102200008DE02048083800681E4A2168914201D1BB
:10221000082127E01B4A14322168914201D1802114
:1022200020E0184A28322168914201D1C91419E0EE
:10223000144A3C322168914202D14FF4004111E02E
:10224000104A50322168914202D14FF4002109E036
:102250000C4A64322168914202D14FF4000101E03E
:102260004FF000610840E0B306492068884201D180
:10227000082029E0034914312068884204D18020D5
:1022800022E0000008000240F9492068884201D19C
:10229000C01419E0F64914312068884202D14FF485
:1022A000004011E0F24928312068884202D14FF401
:1022B000002009E0EE493C312068884202D14FF409
:1022C000000001E04FF00060E94930394860606B80
:1022D00040F001006063042084F8210000BF00206A
:1022E00000E005E084F8200000BF0120BDE8F08197
:1022F000681CA0B12DB1FDF7B3FFA0EB0800A84208
:102300000DD9606B40F020006063032084F8210049
:1023100000BF002084F8200000BF0320E6E7D44877
:1023200030380068384000283FF46BAFA6BBD04976
:1023300028392068884201D1022026E0CC4914398E
:102340002068884201D120201FE0C94920688842C6
:1023500001D1401519E0C64914312068884202D1E4
:102360004FF4005011E0C24928312068884202D160
:102370004FF4003009E0BE493C312068884202D168
:102380004FF4001001E04FF00070B9493039486057
:10239000012084F8210034E0FFE7B549283920689E
:1023A000884201D1042026E0B149143920688842CE
:1023B00001D140201FE0AE492068884201D10015BC
:1023C00019E0AB4914312068884202D14FF48040B3
:1023D00011E0A74928312068884202D14FF48020BB
:1023E00009E0A3493C312068884202D14FF48000C3
:1023F00001E04FF080609E4930394860112084F838
:10240000210000BF002084F8200000BF00BF6DE75E
:1024100010B50446964830380068954A283A216835
:10242000914201D1082126E0914A143A2168914253
:1024300001D180211FE08E4A2168914201D1C91447
:1024400019E08B4A14322168914202D14FF40041C5
:1024500011E0874A28322168914202D14FF40021CD
:1024600009E0834A3C322168914202D14FF40001D5
:1024700001E04FF00061084000284DD0206800685E
:10248000C0F3C00088B32068006820F0080021680D
:102490000860774928392068884201D1082027E060
:1024A000734914392068884201D1802020E07049A6
:1024B0002068884201D1C0141AE06D4914312068A7
:1024C000884202D14FF4004012E069492831206867
:1024D000884202D14FF400200AE065493C3120686F
:1024E000884203D14FF4000002E015E04FF0006095
:1024F0005F4930394860606B40F001006063042040
:1025000084F8210000BF002084F8200000BF206B69
:1025100010B12046216B8847554830380068544A2E
:10252000283A2168914201D1042126E0504A143A08
:102530002168914201D140211FE04D4A216891421A
:1025400001D1091519E04A4A14322168914202D199
:102550004FF4804111E0464A28322168914202D16D
:102560004FF4802109E0424A3C322168914202D175
:102570004FF4800101E04FF08061084098B320687B
:102580000068C0F3800070B32068006800F020008D
:1025900028B92068006820F00400216808603449E8
:1025A00028392068884201D1042027E030491439B5
:1025B0002068884201D1402020E02D4920688842CF
:1025C00001D100151AE02A4914312068884202D14D
:1025D0004FF4804012E0264928312068884203D118
:1025E0004FF480200AE014E021493C312068884201
:1025F00002D14FF4800001E04FF080601C49303977
:102600004860112084F82100E06A10B12046E16A98
:102610008847174830380068154A283A216891429F
:1026200001D1022128E0124A143A2168914201D1D5
:10263000202121E00E4A2168914201D149151BE079
:102640000B4A14322168914202D14FF4005113E039
:10265000074A28322168914202D14FF400310BE041
:10266000034A3C322168914204D14FF4001103E047
:10267000300002404FF00071084098B320680068B5
:10268000C0F3400070B32068006800F0200028B953
:102690002068006820F00200216808602449206852
:1026A000884201D1022028E0214914312068884263
:1026B00001D1202021E01E4928312068884201D123
:1026C00040151AE01A493C312068884202D14FF483
:1026D000005012E0164950312068884203D14FF46F
:1026E00000300AE01BE0124964312068884202D1C0
:1026F0004FF4001001E04FF000700D4908394860B8
:10270000606B6063012084F8210000BF002084F822
:10271000200000BFA06A10B12046A16A884710BD02
:10272000014691F8210070470146486B7047000050
:10273000080002402DE9F847034600240020002548
:102740008446002700226EE14FF0010808FA02F4E7
:10275000D1F8008008EA0400A0427DD1DFF860A42F
:10276000D1F80480A8EB0A09D0453AD014DCB8F1BE
:10277000030F50D009DCB8F1000F31D0B8F1010FD0
:102780001CD0B8F1020F49D120E0B8F1110F18D0D8
:10279000B8F1120F42D11EE0B9F5881F25D006DC32
:1027A000B9F5803F20D0B9F5801F37D11AE0B9F5CF
:1027B000001F18D0B9F5041F30D117E0D1F80CC0B4
:1027C0002DE0D1F80C8008F1040C28E0D1F80C8041
:1027D00008F1080C23E0D1F80C8008F10C0C1EE085
:1027E00000BF00BF00BF00BF00BF00BFD1F808801E
:1027F000B8F1000F02D14FF0040C0BE0D1F80880C3
:10280000B8F1010F03D14FF0080C1C6102E04FF04A
:10281000080C5C6103E04FF0000C00E000BF00BF5B
:10282000FF2801D8984601E003F104084646FF2836
:1028300002D84FEA820803E0A2F108084FEA8808AC
:102840004746D6F800804FF00F0909FA07F928EA41
:1028500009080CFA07F900E088E048EA0908C6F818
:102860000080D1F8048008F08058B8F1805F7DD1F5
:1028700000BFDFF85083D8F8188048F00108DFF86F
:102880004493C9F81880C846D8F8188008F00108A1
:10289000CDF8008000BF00BF4FEAB9384FEA920977
:1028A00058F829504FEA82784FEA18794FF00F080C
:1028B00008FA09F825EA0805DFF80C83434502D138
:1028C0004FF0000816E0DFF80483434502D14FF0D3
:1028D00001080FE0DFF8F882434502D14FF002080B
:1028E00008E0DFF8F082434502D14FF0030801E031
:1028F0004FF004084FEA82794FEA197908FA09F88B
:1029000048EA0505DFF8D0824FEA920948F82950D5
:10291000D1F8048008F48038B8F5803F0AD1DFF898
:10292000BC82D8F8008048EA0008DFF8B092C9F805
:10293000008009E0DFF8A482D8F8008028EA0008C7
:10294000DFF89892C9F80080D1F8048008F40038C4
:10295000B8F5003F10D1DFF8848208F10408D8F8F8
:10296000008048EA0008DFF8749200E05AE009F1BC
:102970000409C9F800800DE0DFF8608208F104085E
:10298000D8F8008028EA0008DFF8509209F104091D
:10299000C9F80080D1F8048008F48018B8F5801FC9
:1029A0000ED1DFF8388208F10808D8F8008048EA2C
:1029B0000008DFF8289209F10809C9F800800DE045
:1029C000DFF8188208F10808D8F8008028EA000823
:1029D000DFF8089209F10809C9F80080D1F80480ED
:1029E00008F40018B8F5001F0ED1DFF8F08108F1E7
:1029F0000C08D8F8008048EA0008DFF8E09109F1F7
:102A00000C09C9F800800DE0DFF8D08108F10C084E
:102A1000D8F8008028EA0008DFF8C09109F10C0915
:102A2000C9F80080521C102AFFF48EAEBDE8F8876A
:102A30002DE9F04102460B4600200021002400262B
:102A40007FE00127874007EA0301002978D0FF29AA
:102A500001D8174600E0171D3D46FF2901D8870021
:102A600002E0A0F10807BF003E462F684FF00F0CB0
:102A70000CFA06FC27EA0C074FF0040C0CFA06FCD3
:102A800047EA0C072F60D7688F43D760524F4FEA51
:102A9000900C57F82C4087074FEA177C0F2707FA4E
:102AA0000CF73C40484FBA4201D100270FE0474F96
:102AB000BA4201D101270AE0454FBA4201D10227AB
:102AC00005E0444FBA4201D1032700E004274FEA52
:102AD000807C4FEA1C7C07FA0CF7A74230D18707AD
:102AE0004FEA177C0F2707FA0CF43B4F4FEA900C84
:102AF00057F82C70A743DFF8E0C04FEA90084CF875
:102B00002870364F3F688F43DFF8D0C0CCF8007094
:102B10000CF104073F688F430CF1040CCCF80070F3
:102B20000CF104073F688F430CF1040CCCF80070E3
:102B30000CF104073F688F430CF1040CCCF80070D3
:102B4000401C23FA00F7002F7FF47BAFBDE8F08133
:102B5000024693680B400BB1012000E00020704753
:102B60000AB1016101E00B0403617047C2684A4089
:102B7000C260704708B502464FF48030009000985C
:102B8000084300900098906191610098906190696D
:102B90000090906900F4803008B1002008BD012049
:102BA000FCE7704710B504460C481430006820401C
:102BB00028B10A48143004602046FFF7F2FF10BD28
:102BC000000011100010024000080140000C0140FC
:102BD00000100140001401400800014000040140C1
:102BE000F948406820F00300F7494860084600684B
:102BF000F6490840F44908600846006820F480203F
:102C00000860002048600846006820F0F8001021A5
:102C1000F82292FAA2F2B2FA82F291400843EA490B
:102C2000086000208860EA48EA490860704738B5C3
:102C300004460025207800F0010000287ED0E248FC
:102C4000406800F00C0004280CD0DF48406800F019
:102C50000C00082837D1DC48406800F48030B0F51B
:102C6000803F30D12020010391FAA1F1B1FA81F126
:102C700008430121B1EB601F02D1D34800680FE087
:102C80002020010391FAA1F1B1FA81F10843022158
:102C9000B1EB601F02D1CC48006A01E0CA48406A2B
:102CA00020210A0392FAA2F2B2FA82F2114301F051
:102CB0001F020121914008400028BFD06068002811
:102CC0003CD1012038BD00BF6068B0F5803F06D11F
:102CD000BD48006840F48030BB49086028E0606867
:102CE00058B9B948006820F48030B74908600846F0
:102CF000006820F4802008601AE06068B0F5A02F1A
:102D00000BD1B148006840F48020AF490860084604
:102D1000006840F4803008600AE0AB48006820F4A6
:102D20008030A94908600846006820F480200860C7
:102D300000BF6068C8B3FDF793FA00E06DE0054698
:102D400006E0FDF78DFA401B642801D90320B9E79E
:102D50002020010391FAA1F1B1FA81F10843012188
:102D6000B1EB601F02D1984800680FE020200103FA
:102D700091FAA1F1B1FA81F108430221B1EB601F90
:102D800002D19148006A01E08F48406A20210A037D
:102D900092FAA2F2B2FA82F2114301F01F0201216B
:102DA000914008400028CCD037E0FFE7FDF758FA03
:102DB000054606E0FDF754FA401B642801D90320BC
:102DC00080E72020010391FAA1F1B1FA81F10843D3
:102DD0000121B1EB601F02D17B4800680FE0202089
:102DE000010391FAA1F1B1FA81F108430221B1EB9B
:102DF000601F02D17448006A01E07348406A2021D4
:102E00000A0392FAA2F2B2FA82F2114301F01F020F
:102E10000121914008400028CCD1207800F0020028
:102E200002284ED16848406800F00C0050B1664856
:102E3000406800F00C00082844D16348406800F462
:102E4000803078BB2020022191FAA1F1B1FA81F102
:102E500008430121B1EB601F02D15B4800680FE01D
:102E60002020022191FAA1F1B1FA81F10843022157
:102E7000B1EB601F02D15448006A01E05248406A39
:102E80002021022292FAA2F2B2FA82F2114301F058
:102E90001F0201219140084028B12069012802D079
:102EA00001200FE70EE04848006820F0F800F82203
:102EB00092FAA2F2B2FA82F2616991400843424961
:102EC00008609BE0206970B3012090FAA0F1B1FA8C
:102ED00081F1414A42F82100FDF7C2F9054606E0BA
:102EE000FDF7BEF9401B022801D90320EAE62020A5
:102EF000022191FAA1F1B1FA81F108430121B1EB6C
:102F0000601F02D13048006810E02020022191FAB1
:102F1000A1F1B1FA81F108430221B1EB601F03D1A5
:102F20002948006A02E01EE02748406A2021022268
:102F300092FAA2F2B2FA82F2114301F01F020121C9
:102F4000914008400028CBD01F48006820F0F800CE
:102F5000F82292FAA2F2B2FA82F261699140084331
:102F6000194908604AE00020012191FAA1F1B1FA63
:102F700081F1194A42F82100FDF772F9054606E091
:102F8000FDF76EF9401B022801D903209AE62020A4
:102F9000022191FAA1F1B1FA81F108430121B1EBCB
:102FA000601F02D1084800681AE02020022191FA2F
:102FB000A1F1B1FA81F108430221B1EB601F0DD1FB
:102FC0000148006A0CE0000000100240FFFFF6FE1E
:102FD00000127A000800002000004242F548406AD2
:102FE0002021022292FAA2F2B2FA82F2114301F0F7
:102FF0001F020121914008400028C1D1207800F033
:103000000800082846D1A06980B3012191FAA1F0F7
:10301000B0FA80F0E84A02EB8000C0F88014FDF7B7
:103020001FF9054606E0FDF71BF9401B022801D9F0
:10303000032047E66020022191FAA1F1B1FA81F163
:1030400008430121B1EB601F02D1DA48006810E0AB
:103050006020022191FAA1F1B1FA81F10843022125
:10306000B1EB601F03D1D348006A02E013E0D148FE
:10307000406A6021022292FAA2F2B2FA82F211436D
:1030800001F01F020121914008400028CBD001200F
:10309000FDF7E9F841E00020012191FAA1F1B1FA30
:1030A00081F1C54A02EB8101C1F88004FDF7D8F82F
:1030B000054606E0FDF7D4F8401B022801D903209D
:1030C00000E66020022191FAA1F1B1FA81F10843F2
:1030D0000121B1EB601F02D1B64800680FE060200B
:1030E000022191FAA1F1B1FA81F108430221B1EB79
:1030F000601F02D1AF48006A01E0AE48406A60211B
:10310000022292FAA2F2B2FA82F2114301F01F02F5
:103110000121914008400028CCD1207800F0040023
:10312000042875D100BFA348C06940F08050A14970
:10313000C8610846C06900F08050009000BF00BF21
:103140009E48006840F480709C490860FDF788F84C
:10315000054606E0FDF784F8401B642801D90320EA
:10316000B0E59648006800F480700028F2D000BFF7
:10317000E068012806D18F48006A40F001008D49BF
:10318000086227E0E06858B98A48006A20F0010028
:10319000884908620846006A20F00400086219E0C5
:1031A000E06805280BD18348006A40F0040081499B
:1031B00008620846006A40F0010008620AE07D48A3
:1031C000006A20F001007B4908620846006A20F08E
:1031D0000400086200BFE068D0B3FDF741F805467F
:1031E00008E0FDF73DF8401B41F28831884201D9E3
:1031F000032067E54020022191FAA1F1B1FA81F1A3
:1032000008430121B1EB601F03D16A48006810E058
:1032100058E04020022191FAA1F1B1FA81F108436E
:103220000221B1EB601F02D16248006A01E06148EF
:10323000406A4021022292FAA2F2B2FA82F21143CB
:1032400001F01F020121914008400028C9D039E057
:10325000FFE7FDF705F8054608E0FDF701F8401B1C
:1032600041F28831884201D903202BE54020022118
:1032700091FAA1F1B1FA81F108430121B1EB601F8C
:1032800002D14C4800680FE04020022191FAA1F1E0
:10329000B1FA81F108430221B1EB601F02D1454828
:1032A000006A01E04348406A4021022292FAA2F2F9
:1032B000B2FA82F2114301F01F020121914008404D
:1032C0000028CAD1E069002873D03A48406800F06D
:1032D0000C00082874D0E069022872D100204FF059
:1032E000807191FAA1F1B1FA81F1334A42F82100DB
:1032F000FCF7B6FF054606E0FCF7B2FF401B0228CC
:1033000001D90320DEE42020010591FAA1F1B1FAF0
:1033100081F108430121B1EB601F02D1254800680B
:103320000FE02020010591FAA1F1B1FA81F10843E3
:103330000221B1EB601F02D11E48006A01E01D4866
:10334000406A20210A0592FAA2F2B2FA82F21143EF
:1033500001F01F020121914008400028CCD1206AD1
:10336000B0F5803F07D11348406820F40030A168D1
:10337000084310494860D4E9080108430D494968E9
:1033800021F4741108430B4948600121080690FAA2
:10339000A0F0B0FA80F0084A42F82010FCF760FF75
:1033A00005460FE0FCF75CFF401B02280AD903200A
:1033B00088E478E0001002400000424200700040C3
:1033C0006FE02CE02020010591FAA1F1B1FA81F122
:1033D00008430121B1EB601F02D1FA4800680FE0F9
:1033E0002020010591FAA1F1B1FA81F108430221EF
:1033F000B1EB601F02D1F348006A01E0F148406A76
:1034000020210A0592FAA2F2B2FA82F2114301F0E7
:103410001F020121914008400028C3D043E0002052
:103420004FF0807191FAA1F1B1FA81F1E64A42F8C8
:103430002100FCF715FF054606E0FCF711FF401BD5
:10344000022801D903203DE42020010591FAA1F1D1
:10345000B1FA81F108430121B1EB601F02D1D948D3
:1034600000680FE02020010591FAA1F1B1FA81F185
:1034700008430221B1EB601F02D1D248006A01E08B
:10348000D048406A20210A0592FAA2F2B2FA82F2EA
:10349000114301F01F020121914008400028CCD1C6
:1034A00001E001200EE400200CE4F0B585B00FF23D
:1034B0001C3C9CE8E01001A8A0E8E010C7A52D681E
:1034C000009500210024002200230020BD4D6968E2
:1034D00001F00C056DB3042D02D0082D28D101E0B8
:1034E000BF4828E001F470154FF4701696FAA6F65E
:1034F000B6FA86F6F54001AE735D01F4803595B1FC
:10350000B04D6D6805F400354FF4003696FAA6F616
:10351000B6FA86F6F5401DF80540B14DB5FBF4F559
:1035200005FB03F202E0AF4D03FB05F2104602E09B
:1035300000BFAB4800BF00BF05B0F0BD70B504468A
:103540000D460026A848006800F00700A8420ED2E9
:10355000A548006820F007002843A34908600846F2
:10356000006800F00700A84201D0012070BD20785B
:1035700000F00200022807D19248406820F0F000D5
:10358000A16808438F494860207800F001000028B6
:103590007CD0606801282DD12020010391FAA1F18F
:1035A000B1FA81F108430121B1EB601F02D18548D6
:1035B00000680FE02020010391FAA1F1B1FA81F136
:1035C00008430221B1EB601F02D17E48006A01E08E
:1035D0007C48406A20210A0392FAA2F2B2FA82F2EF
:1035E000114301F01F02012191400840002860D1E1
:1035F0000120BBE7606802282CD12020010591FA48
:10360000A1F1B1FA81F108430121B1EB601F02D1B0
:103610006C4800680FE02020010591FAA1F1B1FA91
:1036200081F108430221B1EB601F02D16548006AB5
:1036300001E06448406A20210A0592FAA2F2B2FA37
:1036400082F2114301F01F0201219140084078BB32
:1036500001208BE72020022191FAA1F1B1FA81F13A
:1036600008430121B1EB601F02D15648006810E009
:103670002020022191FAA1F1B1FA81F1084302213F
:10368000B1EB601F03D14F48006A02E054E04D489F
:10369000406A2021022292FAA2F2B2FA82F2114387
:1036A00001F01F0201219140084008B901205DE7A7
:1036B000FFE74448406820F003006168084341493F
:1036C0004860FCF7CDFD06466068012810D108E08F
:1036D000FCF7C6FD801B41F28831884201D90320E6
:1036E00044E73848406800F00C000428F0D123E09B
:1036F0006068022810D108E0FCF7B2FD801B41F29F
:103700008831884201D9032030E72E48406800F014
:103710000C000828F0D10FE008E0FCF7A1FD801BA9
:1037200041F28831884201D903201FE725484068CB
:1037300000F00C000028F0D12B48006800F00700D2
:10374000A8420ED92848006820F0070028432649DF
:1037500008600846006800F00700A84201D0012078
:1037600004E7207800F00400042807D115484068D9
:1037700020F4E060E168084312494860207800F0D6
:103780000800082808D10F48406820F460502169DB
:1037900040EAC1000B494860FFF787FE09494968C4
:1037A00001F0F001F02292FAA2F2B2FA82F2D140D4
:1037B0000E4A515CC8400E4908600020FCF717FD16
:1037C0000020D3E60010024000004242020304053C
:1037D000060708090A0B0C0D0E0F1010010200005D
:1037E00000127A0000093D0000200240EACD0008E6
:1037F0000800002070B586B005460C46164600202D
:1038000002900390049005900220039003200590FD
:10381000002004904FF48070029000BF74488069CB
:1038200040F00400724988610846806900F0040095
:10383000019000BF00BF02A96E48FEF77BFF6C48F5
:10384000406820F0E06020436949486006B070BDE0
:103850000120C10491FAA1F1B1FA81F1664A42F85E
:103860002100704700204FF4002191FAA1F1B1FA34
:1038700081F1614A42F82100704760480068704752
:1038800000B5FFF7FAFF5A49496801F4E0614FF4C7
:10389000E06292FAA2F2B2FA82F2D140584A515C46
:1038A000C84000BD00B5FFF7E8FF5149496801F481
:1038B00060514FF4605292FAA2F2B2FA82F2D14011
:1038C0004F4A515CC84000BD0F210160484909685A
:1038D00001F48021B1F5802F03D14FF4A021416084
:1038E0000CE04349096801F48031B1F5803F03D110
:1038F0004FF48031416001E0002141603C4949685A
:1039000001F4003181603A49096801F0010111B107
:103910000121016101E0002101613549096801F0DF
:10392000F801F82292FAA2F2B2FA82F2D140416191
:103930002F49096A01F00401042902D10521C1605F
:1039400009E02B49096A01F0010111B10121C160AF
:1039500001E00021C1602649496A01F0010111B16D
:103960000121816101E0002181612149096801F0A3
:103970008071B1F1807F02D10221C16101E001219A
:10398000C1611B49496801F48032026218494968E3
:1039900001F47012426270470F220260144A5268AA
:1039A00002F003024260124A526802F0F0028260A2
:1039B0000F4A526802F4E062C2600D4A526802F493
:1039C0006052D20802610F4A126802F007020A60D0
:1039D0007047704710B50648806800F08000802866
:1039E00004D1FFF7F6FF80200149887210BD000066
:1039F0000010024000080140000042420800002080
:103A0000FACD000800200240F8B504460026002543
:103A1000207800F00100002877D000BFAD48C069D1
:103A200040F08050AB49C8610846C06900F0805042
:103A3000009000BF00BFA848006840F48070A6490D
:103A40000860FCF70DFC064606E0FCF709FC801B4D
:103A5000642801D90320F8BD9F48006800F48070F5
:103A60000028F2D09B48006A00F44075002D5ED01B
:103A7000A08800F44070A84259D09648006A20F40B
:103A800040750120010491FAA1F1B1FA81F1934A44
:103A900002EB8101C1F8000400204FF4803191FA5B
:103AA000A1F1B1FA81F102EB8101C1F8000489486A
:103AB000056205F0010048B3FCF7D2FB064608E0BA
:103AC000FCF7CEFB801B41F28831884201D90320EC
:103AD000C1E74020022191FAA1F1B1FA81F1084336
:103AE0000121B1EB601F02D17A48006811E040204B
:103AF000022191FAA1F1B1FA81F108430221B1EB5F
:103B0000601F04D17348006A03E018E00FE07148B9
:103B1000406A4021022292FAA2F2B2FA82F21143E2
:103B200001F01F020121914008400028C8D06948D7
:103B3000006A20F440706168084366490862207892
:103B400000F00200022807D16248406820F440409B
:103B5000A16808435F494860207800F010001028F1
:103B600007D15C48406820F48000E1680843594967
:103B7000486000206FE7002101220260554A126A66
:103B800002F440714160026842F002020260514A50
:103B9000526802F440428260026842F01002026001
:103BA0004C4A526802F48002C26070472DE9F0432B
:103BB00085B006464AA30FCB01AC0FC44CA00068E9
:103BC00000900024A046A14600250027012E3DD0EC
:103BD000022E65D0102E77D13E484468006800F070
:103BE000807068B304F470104FF4701191FAA1F171
:103BF000B1FA81F1C84001A90F5C04F48030A0B192
:103C00003448406800F40030710391FAA1F1B1FA30
:103C100081F1C8401DF8009004F4803040B135486F
:103C2000B0FBF9F000FB07F502E0334807FB00F5B5
:103C30002848406800F48000B0F5800F01D1A84604
:103C400003E068000321B0FBF1F83EE02148046A7C
:103C500004F44070B0F5807F05D104F0020010B18B
:103C60004FF400481BE004F44070B0F5007F07D12A
:103C70001848406A00F0020010B149F640480EE0D2
:103C800004F44070B0F5407F07D11248006800F49A
:103C9000003010B14FF2244801E04FF0000814E06A
:103CA000FFF700FE01460B48406800F440404FF427
:103CB000804292FAA2F2B2FA82F2D040401C400056
:103CC000B1FBF0F801E0FFE700BF00BF404605B0E0
:103CD000BDE8F08300100240007000400000424246
:103CE00002030405060708090A0B0C0D0E0F10103D
:103CF0000102000000127A0000093D00704710B573
:103D000004460CB9012010BD94F8510028B90020D8
:103D100084F85000204605F082FD022084F851000E
:103D20002068006820F0400021680860D4E90101A3
:103D30000843E16808432169084361690843218B0E
:103D400001F400710843E1690843216A0843A16A4C
:103D50000843216808600421A06901EA1040616AF3
:103D60000843216848602168E06A086100206065B6
:103D7000012084F851000020C5E7704710B50446C3
:103D80000CB9012010BD022084F8510020680068A1
:103D900020F0400021680860204605F06DFD0020FD
:103DA000606584F8510000BF84F8500000BF00BF78
:103DB000E8E72DE9F04104460E4617461D464FF050
:103DC0000008FCF74DFA8046002F3ED132E0681C17
:103DD00078B32DB1FCF744FAA0EB0800A84229D92A
:103DE0002068406820F0E000216848602068006892
:103DF00020F0400021680860A06AB0F5005F0DD196
:103E000000BF2068006820F4005021680860206826
:103E1000006840F400502168086000BF012084F869
:103E2000510000BF002084F8500000BF0320BDE80F
:103E3000F081FFE7206880683040B04201D1012066
:103E400000E000200028C2D03CE031E0681C70B3E4
:103E50002DB1FCF705FAA0EB0800A84228D920688C
:103E6000406820F0E000216848602068006820F089
:103E7000400021680860A06AB0F5005F0DD100BF66
:103E80002068006820F400502168086020680068FD
:103E900040F400502168086000BF012084F8510000
:103EA00000BF002084F8500000BF0320BFE7FFE7F9
:103EB000206880683040B04201D1012000E000203D
:103EC0000028C3D10020B2E7F8B504460E461546D7
:103ED0001F4694F85100012874D106B10DB9012094
:103EE000F8BD00BF94F85000012801D10220F7E787
:103EF000012084F8500000BF122084F851000020F7
:103F000060652663A586E586E064A064A063A0875B
:103F1000E087A06AB0F5005F0DD100BF206800689F
:103F200020F40050216808602068006840F40050C8
:103F30002168086000BFA068B0F5004F05D1206877
:103F4000006840F48040216808602068006800F044
:103F50004000402805D02068006840F040002168FB
:103F60000860E06878BB606810B1E08E012808D175
:103F7000216B481C206308782168C860E08E401ED1
:103F8000E08611E03B46002202212046FFF711FFA8
:103F900008B10320A4E7216B481C2063087821683E
:103FA000C860E08E401EE086E08E0028EADCA06A51
:103FB000B0F5005F38D12068006840F48050216877
:103FC000086031E05EE0FFE7606810B1E08E012834
:103FD00009D1206B00882168C860206B801C206399
:103FE000E08E401EE08612E03B4600220221204681
:103FF000FFF7DFFE08B1032072E7206B008821681D
:10400000C860206B801C2063E08E401EE086E08E3E
:104010000028E9DCA06AB0F5005F05D120680068DF
:1040200040F48050216808603B460022022120466F
:10403000FFF7BFFE28B1606D40F0100060650320FF
:104040004EE73B46012280212046FFF7B2FE28B111
:10405000606D40F010006065032041E7A06840B942
:1040600000BF2068C068009020688068009000BF92
:1040700000BF012084F8510000BF002084F85000E8
:1040800000BF2DE702202BE70146012070472DE9F4
:10409000F84304460E4617461D46DDF820800020F2
:1040A000009094F85100012803D094F85100222880
:1040B00076D10EB107B115B90120BDE8F88300BF74
:1040C00094F85000012801D10220F6E7012084F87D
:1040D000500000BF94F85100012802D1322084F82A
:1040E000510000206065A763A587E5872663A58644
:1040F000E586A064E064A06AB0F5005F0DD100BF62
:104100002068006820F4005021680860206800687A
:1041100040F400502168086000BF2068006800F08B
:104120004000402805D02068006840F04000216829
:104130000860E068B0F5006F75D1606830B1606804
:10414000B0F5827F0CD1E08E012809D1206B008868
:104150002168C860206B801C2063E08E401EE086D2
:10416000E08EF0B9A06AB0F5005F05D12068006864
:1041700040F4805021680860434600220121204617
:10418000FFF717FE08B1032097E72068C068A16B0E
:104190000880A06B801CA063E08F401EE087C7E012
:1041A00015E131E04346002202212046FFF701FEDF
:1041B00008B1032081E7206B00882168C860206B6C
:1041C000801C2063E08E401EE086E08E48B9A06A25
:1041D000B0F5005F05D12068006840F48050216888
:1041E00008604346002201212046FFF7E2FD08B1A6
:1041F000032062E72068C068A16B0880A06B801C68
:10420000A063E08F401EE087E08E0028CADC606873
:104210000028C4D14346002201212046FFF7C9FDF2
:1042200010B1032049E70AE02068C068A16B08804C
:10423000A06B801CA063E08F401EE08778E0606880
:1042400030B16068B0F5827F0BD1E08E012808D1D3
:10425000216B481C206308782168C860E08E401EEE
:10426000E086E08ED0B9A06AB0F5005F05D1206885
:10427000006840F480502168086043460022012114
:104280002046FFF796FD08B1032016E72068C068B6
:10429000A16B0870E08F401EE08749E030E04346A4
:1042A000002202212046FFF784FD08B1032004E725
:1042B000216B481C206308782168C860E08E401E8E
:1042C000E086E08E48B9A06AB0F5005F05D12068AD
:1042D000006840F4805021680860434600220121B4
:1042E0002046FFF766FD08B10320E6E62068C068B7
:1042F000C1B2A26B501CA0631170E08F401EE0871A
:10430000E08E0028CBDC606890B943460022012192
:104310002046FFF74EFD08B10320CEE62068C068B6
:10432000C1B2A26B501CA0631170E08F401EE087E9
:10433000A06AB0F5005F12D1434600220121204659
:10434000FFF737FD28B1606D40F002006065032083
:10435000B3E62068C06880B20090BDF80000434614
:10436000012280212046FFF724FD28B1606D40F036
:10437000100060650320A0E6012084F85100A06AC7
:10438000B0F5005F1DD120688068C0F30010C0B197
:10439000606D40F00200606500BF2068006820F496
:1043A0000050216808602068006840F400502168CF
:1043B000086000BF00BF002084F8500000BF01204B
:1043C0007BE600BF002084F8500000BF75E60220A5
:1043D00073E62DE9FC4104460E4615461F460020B3
:1043E000019094F8510001287BD106B115B9012044
:1043F000BDE8FC8100BF94F85000012801D10220E3
:10440000F6E7012084F8500000BF222084F8510014
:1044100000206065A663A587E587A064E06420634B
:10442000A086E086A068B0F5004F05D1206800683E
:1044300020F4804021680860A06AB0F5005F0DD1CB
:1044400000BF2068006820F40050216808602068E0
:10445000006840F400502168086000BF6068B0F553
:10446000827F0ED1A06860B900BF002084F85000A0
:1044700000BF2B463246314620460097FFF707FE25
:10448000B6E72068006800F04000402805D02068AA
:10449000006840F0400021680860E06810BB12E04E
:1044A0003B46002201212046FFF783FC08B1032090
:1044B0009EE72068C068C1B2A26B501CA063117057
:1044C000E08F401EE087E08F0128E9DCA06AB0F5AC
:1044D000005F28D12068006840F48050216808609F
:1044E00021E09AE012E03B46002201212046FFF73E
:1044F00060FC08B103207BE72068C068A16B0880DE
:10450000A06B801CA063E08F401EE087E08F012835
:10451000E9DCA06AB0F5005F05D12068006840F4CE
:104520008050216808603B46002201212046FFF7A9
:1045300040FC08B103205BE7E06838B92068C06838
:10454000C1B2A26B501CA063117006E02068C06865
:10455000A16B0880A06B801CA063E08F401EE087E9
:10456000A06AB0F5005F12D13B460022012120462F
:10457000FFF71FFC28B1606D40F00200606503206A
:1045800036E72068C06880B20190BDF8040060681A
:10459000B0F5827F0DD1A068B0F5004F03D0A068C0
:1045A000B0F5806F05D12068006820F040002168D8
:1045B0000860012084F85100A06AB0F5005F26D1A0
:1045C00020688068C0F3001008B3204600F0ABFEFE
:1045D000012818D1606D40F00200606500BF2068BE
:1045E000006820F40050216808602068006840F4EA
:1045F00000502168086000BF00BF002084F8500010
:1046000000BF0120F4E66FF010002168886000BF51
:10461000002084F8500000BFEAE60220E8E6704778
:104620007047704738B504460A230022022120460D
:10463000FFF7BFFB18B1606D40F0100060652068A7
:10464000406820F080002168486020684068C0F31E
:10465000801038BB2068406820F020002168486046
:104660000A23012280212046FFF7A3FB18B1606DC9
:1046700040F010006065A06840B900BF2068C068C5
:10468000009020688068009000BF00BF606D88B90E
:1046900094F85100322806D1012084F851002046B8
:1046A000FFF7BFFF0CE0012084F851002046FFF720
:1046B000B7FF05E0012084F851002046FFF7AFFF67
:1046C00038BD10B50446E06830B9216B481C206342
:1046D00008782168C86006E0206B00882168C860FF
:1046E000206B801C2063E08E401EE086E08E60B967
:1046F000A06AB0F5005F05D12068006840F48050E2
:10470000216808602046FFF78DFF10BD10B50346F5
:1047100093F8510001285BD101B10AB9012010BD05
:1047200000BF93F85000012801D10220F7E70120D3
:1047300083F8500000BF122083F851000020586514
:10474000FB48D86419639A86DA86002098649863D7
:104750009887D8879868B0F5004F05D11868006829
:1047600040F480401C682060986AB0F5005F0DD16D
:1047700000BF1868006820F400501C6820601868AA
:10478000006840F400501C68206000BF986830B991
:104790001868406840F080001C68606005E0186898
:1047A000406840F0A0001C68606000BF002083F8F3
:1047B000500000BF1868006800F04000402805D095
:1047C0001868006840F040001C6820600020A6E7E0
:1047D0000220A4E7704738B5044600200090A06A84
:1047E000B0F5005F3FD10A23002201212046FFF7E8
:1047F000E0FA18B1606D40F0100060652068C06894
:1048000080B20090BDF800000A2301221146204624
:10481000FFF7CFFA18B1606D40F0100060652068B6
:104820008068C0F30010F0B194F85100222804D140
:10483000204600F078FD012811D1606D40F00200A3
:10484000606500BF2068006820F40050216808609F
:104850002068006840F400502168086003E06FF0B1
:104860001000216888602068406820F040002168BE
:10487000486020684068C0F3C01018BB20684068DA
:1048800020F02000216848606068B0F5827F0DD17B
:10489000A068B0F5004F03D0A068B0F5806F05D1D7
:1048A0002068006820F0400021680860606D88B9C9
:1048B00094F85100322806D1012084F85100204696
:1048C000FFF7AFFE0CE0012084F851002046FFF70F
:1048D00081FF05E0012084F851002046FFF79FFE8C
:1048E00038BD10B50446E06838B92068C068C1B268
:1048F000A26B501CA063117006E02068C068A16B19
:104900000880A06B801CA063E08F401EE087E08FD2
:1049100010B92046FFF75FFF10BD30B5044694F88C
:10492000510001280AD06068B0F5827F54D1A06898
:10493000002851D194F8510022284DD109B102B17B
:104940000BB9012030BD00BF94F85000012801D1FF
:104950000220F7E7012084F8500000BF94F85100CE
:10496000222802D0322084F851000020606570486F
:10497000E0642163A386E3866E48A064A263A387F4
:10498000E387A06AB0F5005F0DD100BF2068006822
:1049900020F40050256828602068006840F400502A
:1049A0002568286000BF2068406840F0E000256866
:1049B000686000BF002084F8500000BF20680068D5
:1049C00000F04000402805D02068006840F040001A
:1049D000256828600020B5E70220B3E710B504463B
:1049E000E06838B92068C068C1B2A26B501CA063EF
:1049F000117006E02068C068A16B0880A06B801C65
:104A0000A063E08F401EE087E08F012809D1A06AF3
:104A1000B0F5005F05D12068006840F4805021683F
:104A20000860E08F10B92046FFF7D5FE10BD70B5C5
:104A300004460E46154694F85100012865D106B18A
:104A40000DB9012070BD00BF94F85000012801D1BC
:104A50000220F7E7012084F8500000BF222084F8EC
:104A60005100002060653448A064A663A587E587EF
:104A70000020E0642063A086E086A068B0F5004FC7
:104A800006D12068006820F480402168086011E0A9
:104A9000A06878B96068B0F5827F0BD100BF0020B4
:104AA00084F8500000BF2B46324631462046FFF7BF
:104AB00034FFC7E7A06AB0F5005F0DD100BF2068E2
:104AC000006820F40050216808602068006840F405
:104AD00000502168086000BF2068406840F0600016
:104AE0002168486000BF002084F8500000BF2068A3
:104AF000006800F04000402805D02068006840F0C1
:104B000040002168086000209CE702209AE770B509
:104B100005466C6A0020E086E087012084F8510099
:104B2000606D40F0080060652046FFF778FD70BDBD
:104B3000C3460008E3480008DD49000838B50546CB
:104B40006C6A2868006800F0200000BB0A2300227D
:104B500002212046FFF72DF918B1606D40F01000DA
:104B600060652068406820F00200216848600A23E0
:104B7000012280212046FFF71CF918B1606D40F03A
:104B8000100060650020E086012084F85100A068D4
:104B900040B900BF2068C06800902068806800901D
:104BA00000BF00BF606D18B12046FFF738FD02E07E
:104BB0002046FFF735FD38BD704770B50446656A7D
:104BC0002846FFF7F9FF70BD2DE9F04104460E4677
:104BD000154694F85100012862D106B115B901209B
:104BE000BDE8F08100BF94F85000012801D10220F7
:104BF000F6E7012084F8500000BF122084F851002D
:104C0000002060652663A586E586E064A064A06355
:104C1000A087E087A068B0F5004F05D12068006844
:104C200040F4804021680860A06AB0F5005F0DD1B3
:104C300000BF2068006820F40050216808602068E8
:104C4000006840F400502168086000BFF748216CFC
:104C5000C862F748216C8862F648216C0863E38ECD
:104C6000276807F10C02216B206CFDF7F2F9206830
:104C7000406840F002002168486000BF002084F8CE
:104C8000500000BF2068006800F04000402805D0B8
:104C90002068006840F040002168086000209FE71D
:104CA00002209DE738B50546002000906C6A286810
:104CB000006800F0200000286CD12068406820F0D7
:104CC0000100216848602068406820F002002168E7
:104CD0004860A06AB0F5005F3BD10A2300220121A1
:104CE0002046FFF766F818B1606D40F0100060656F
:104CF0002068C06880B20090BDF800000A2301223D
:104D000011462046FFF755F818B1606D40F01000CD
:104D1000606520688068C0F30010D0B1204600F0C4
:104D200002FB012811D1606D40F00200606500BFF8
:104D30002068006820F4005021680860206800683E
:104D400040F400502168086000BF6FF01000216837
:104D500088606068B0F5827F0DD1A068B0F5004F23
:104D600003D0A068B0F5806F05D12068006820F0FE
:104D70004000216808600020E087012084F851008D
:104D8000606D18B12046FFF74AFC06E02046FFF7A9
:104D900021FD02E02046FFF71DFD38BD704770B5CC
:104DA0000446656A2846FFF7F9FF70BD38B5054629
:104DB000002000906C6A2868006800F0200000283D
:104DC0005AD1A06AB0F5005F24D10A23012211460E
:104DD0002046FEF7EEFF50B90A23002201212046AB
:104DE000FEF7E7FF18B1606D40F0100060652068C5
:104DF000C06880B20090BDF8000020688068C0F3F1
:104E0000001038B1606D40F0020060656FF0100076
:104E1000216888600A23002202212046FEF7C9FF8C
:104E200018B1606D40F0100060652068406820F0A7
:104E30000200216848600A23012280212046FEF7F3
:104E4000B8FF18B1606D40F01000606520684068E0
:104E500020F00100216848600020E086E087012002
:104E600084F85100606D18B12046FFF7D8FB06E0CA
:104E70002046FFF7D6FB02E02046FFF7D2FB38BD05
:104E8000704770B50446656A2846FFF7F9FF70BDA4
:104E90002DE9F04104460E4617461D4694F8510090
:104EA00001280AD06068B0F5827F7DD1A068002813
:104EB000FBD194F851002228F7D10EB107B115B9F2
:104EC0000120BDE8F08100BF94F85000012801D115
:104ED0000220F6E7012084F8500000BF94F851004A
:104EE000222802D0322084F8510000206065266319
:104EF000A586E586A763A587E587A064E064A06A28
:104F0000B0F5005F0DD100BF2068006820F40050AC
:104F1000216808602068006840F40050216808603B
:104F200000BF94F85100222806D14348616CC86242
:104F30004248616C886205E04148616CC862414842
:104F4000616C88623B48616C0863E38FD4F800C0F1
:104F50000CF10C01A26B606CFDF77BF820684068D7
:104F600040F001002168486094F85100322803D1D4
:104F70003048216C086302E00020216C0863E38E56
:104F8000D4F800C00CF10C02216B206CFDF761F825
:104F90002068006800F04000402807D020680068C2
:104FA00040F04000216800E00CE0086020684068A4
:104FB00040F002002168486000BF002084F85000E3
:104FC00000BF7EE702207CE72DE9F04104460E4653
:104FD000154694F8510001287ED106B115B901207B
:104FE000BDE8F08100BF94F85000012801D10220F3
:104FF000F6E7012084F8500000BF222084F8510019
:1050000000206065A663A587E587A064E06420634F
:10501000A086E086A068B0F5004F15D12068006832
:1050200020F480402168086020E00000BB4B0008AD
:105030003D4B00080F4B00089F4D0008A54C000891
:10504000834E0008AD4D0008A06878B96068B0F5DF
:10505000827F0BD100BF002084F8500000BF2B4698
:10506000324631462046FFF713FFB9E7A06AB0F594
:10507000005F0DD100BF2068006820F40050216857
:1050800008602068006840F400502168086000BF94
:105090008048616CC8628048616C88627F48616C3E
:1050A0000863E38F276807F10C01A26B606CFCF7C3
:1050B000D0FF2068406840F001002168486000BFD0
:1050C000002084F8500000BF2068006800F0400015
:1050D000402807D0206800E006E0006840F040006B
:1050E0002168086000207BE7022079E7014600BFC5
:1050F00091F85000012801D102207047012081F869
:10510000500000BF0868406820F002000A68506044
:105110000868406820F001000A68506000BF002065
:1051200081F8500000BF00BFE7E7014600BF91F8DB
:105130005000012801D102207047012081F8500061
:1051400000BF0868406840F002000A6850600868C4
:10515000406840F001000A68506000BF002081F8FC
:10516000500000BF00BFE7E710B50446206C10B147
:10517000206CFCF7A9FF606C10B1606CFCF7A4FF19
:105180002068406820F0020021684860206840687C
:1051900020F0010021684860012084F851000020BF
:1051A00010BD38B5044620684068C0F3801068B16F
:1051B0002068806800F0010040B120688068C0F37A
:1051C000801018B92046A16C884738BD2068406817
:1051D000C0F3C01040B120688068C0F3400018B12F
:1051E0002046E16C8847F0E720684068C0F3401033
:1051F000002846D020688068C0F3001038B1606D88
:1052000040F0020060656FF010002168886020683F
:105210008068C0F3401080B1606D40F001006065AF
:1052200000BF2068806800902068006820F040007F
:1052300021680860009000BF00BF20688068C0F34C
:10524000801080B194F8510012280CD0606D40F0AD
:105250000400606500BF2068C06800902068806816
:10526000009000BF00BF606D58B12068406820F01A
:10527000E00021684860012084F851002046FFF7D3
:10528000CEF900BFA1E7014691F8510070470146F1
:10529000486D70479F4D0008A54C00080F4B000853
:1052A00010B504460CB9012010BD94F8510010B996
:1052B000204604F0B4FA022084F851002068006807
:1052C00020F0400021680860D4E901010843E1684A
:1052D00008432169084361690843218B01F4007187
:1052E0000843E1690843216A0843A16A0843216829
:1052F00008600421A06901EA1040616A084321683E
:1053000048602168E06A08612068C06920F4006094
:105310002168C8610020054908706065012084F893
:1053200051000020C0E70146012070470400002022
:1053300000220268F84B984208D0B0F1804F05D0A7
:10534000F64B984202D0F64B984203D122F07002FD
:105350004B681A43F04B984208D0B0F1804F05D00B
:10536000EE4B984202D0EE4B984203D122F44072A9
:10537000CB681A4302608B68C3620B688362E64B9A
:10538000984201D10B690363012343617047704761
:1053900010B504460CB9012010BD94F8390028B9A5
:1053A000002084F838002046FFF7F1FF022084F83F
:1053B0003900211D2068FFF7BBFF012084F8390068
:1053C0000020E9E7704710B50446022084F8390050
:1053D00000BF2068006A41F21111084050B92068EE
:1053E000006A8910084028B92068006820F0010090
:1053F0002168086000BF2046FFF7E4FF002084F822
:10540000390000BF84F8380000BF10BD01460220FB
:1054100081F839000868006840F001000A681060EF
:10542000012081F83900002070470146022081F8F0
:10543000390000BF0868006A41F21112104050B9EB
:105440000868006A9210104028B90868006820F0C7
:1054500001000A68106000BF012081F839000020B7
:10546000704701460868C06840F001000A68D060D3
:105470000868006840F001000A681060002070476A
:1054800001460868C06820F001000A68D06000BFCB
:105490000868006A41F21112104050B90868006AA9
:1054A0009210104028B90868006820F001000A68CE
:1054B000106000BF00207047704770B50446656AF1
:1054C000012085F839002846FFF7F6FF70BD7047C8
:1054D00070B50446656A012085F839002846FFF753
:1054E000F6FF70BD70B504460E46154694F83900B7
:1054F000022800D170BD94F83900012806D116B9F0
:10550000002D00DDF6E7022084F839008548E169C6
:105510008862AFF25900E1690863216801F12C0249
:105520002B463146E069FCF794FD2068C06840F4E2
:1055300080702168C8602068006840F00100216820
:1055400008600020D6E701460868C06820F4807033
:105550000A68D06000BF0868006A41F2111210406A
:1055600050B90868006A9210104028B908680068AD
:1055700020F001000A68106000BF012081F83900A6
:1055800000207047704710B504460CB9012010BDCB
:1055900094F8390028B9002084F838002046FFF735
:1055A000F1FF022084F83900211D2068FFF7C0FEBA
:1055B000012084F839000020E9E7704710B504465F
:1055C000022084F8390000BF2068006A41F21111FE
:1055D000084050B92068006A8910084028B920683E
:1055E000006820F001002168086000BF2046FFF736
:1055F000E4FF002084F8390000BF84F8380000BFC1
:1056000010BD30B50023012404FA01F3046A9C4361
:105610000462046A02FA01F52C43046230BD30B51D
:1056200004460D46012229462068FFF7EAFF3A4961
:105630002068884201D1012000E0002028B12068C4
:10564000406C40F40040216848642068006840F0E5
:10565000010021680860002030BD30B504460D46C9
:10566000002229462068FFF7CCFF2B49206888429A
:1056700001D1012000E0002090B100BF2068006A45
:1056800041F21111084050B92068006A89100840A1
:1056900028B92068406C20F400402168486400BFAD
:1056A00000BF2068006A41F21111084050B920681B
:1056B000006A8910084028B92068006820F00100BD
:1056C0002168086000BF002030BD30B504460D469B
:1056D00035B1042D0BD0082D10D00C2D24D114E0A1
:1056E0002068C06840F002002168C8601DE02068A2
:1056F000C06840F004002168C86016E02068C068F7
:1057000040F008002168C8600FE02068C06840F0E1
:1057100010002168C86008E0002C0140000400402F
:1057200000080040D154000800BF00BF01222946F4
:105730002068FFF766FFF7492068884201D1012001
:1057400000E0002028B12068406C40F4004021684F
:1057500048642068006840F001002168086000206B
:1057600030BD30B504460D4635B1042D0BD0082DA3
:1057700010D00C2D1CD114E02068C06820F002006D
:105780002168C86015E02068C06820F00400216826
:10579000C8600EE02068C06820F008002168C8607A
:1057A00007E02068C06820F010002168C86000E0B1
:1057B00000BF00BF002229462068FFF722FFD5491D
:1057C0002068884201D1012000E0002090B100BF94
:1057D0002068006A41F21111084050B92068006A3F
:1057E0008910084028B92068406C20F400402168E6
:1057F000486400BF00BF2068006A41F211110840F0
:1058000050B92068006A8910084028B920680068EB
:1058100020F001002168086000BF002030BD704703
:1058200070B505466C6A012084F83900206AA842E8
:1058300002D10120207610E0606AA84202D1022045
:1058400020760AE0A06AA84202D10420207604E073
:10585000E06AA84201D1082020762046FFF7DFFF4A
:105860000020207670BD2DE9F04104460E46154615
:105870001F4694F83900022801D1BDE8F08194F860
:105880003900012806D115B9002F00DDF5E7022007
:1058900084F8390036B1042E1BD0082E30D00C2EDF
:1058A0005CD144E0AFF28701206A8162AFF2F5314A
:1058B000206A0163216801F134023B462946206ACF
:1058C000FCF7C7FB2068C06840F400702168C8601E
:1058D00045E0AFF2B301606A8162AFF22141606AD4
:1058E0000163216801F138023B462946606AFCF7F2
:1058F000B0FB2068C06840F480602168C8602EE07A
:10590000AFF2E301A06A8162AFF25141A06A016384
:10591000216801F13C023B462946A06AFCF799FB4D
:105920002068C06840F400602168C86017E0AFF2EA
:105930000F11E06A8162AFF27D41E06A0163216884
:1059400001F140023B462946E06AFCF782FB2068F1
:10595000C06840F480502168C86000E000BF00BF0C
:10596000012231462068FFF74CFE6A4920688842D0
:1059700001D1012000E0002028B12068406C40F4F3
:105980000040216848642068006840F001002168F8
:105990000860002071E730B504460D4635B1042D8E
:1059A0000BD0082D10D00C2D1CD114E02068C0683D
:1059B00020F400702168C86015E02068C06820F4F9
:1059C00080602168C8600EE02068C06820F4006034
:1059D0002168C86007E02068C06820F48050216812
:1059E000C86000E000BF00BF002229462068FFF722
:1059F00008FE48492068884201D1012000E00020CB
:105A000090B100BF2068006A41F21111084050B9FE
:105A10002068006A8910084028B92068406C20F48A
:105A200000402168486400BF00BF2068006A41F25E
:105A30001111084050B92068006A8910084028B93F
:105A40002068006820F001002168086000BF012084
:105A500084F83900002030BD704710B504460CB9F9
:105A6000012010BD94F8390028B9002084F83800CE
:105A70002046FFF7F1FF022084F83900211D20683D
:105A8000FFF756FC012084F839000020E9E7704751
:105A900010B50446022084F8390000BF2068006A6F
:105AA00041F21111084050B92068006A891008407D
:105AB00028B92068006820F001002168086000BF54
:105AC0002046FFF7E4FF002084F8390000BF84F887
:105AD000380000BF10BD30B504460D4601222946EE
